:020000040800F2
:100000004809002081010008F92A00088926000813
:1000100000000000000000000000000000000000E0
:10002000000000000000000000000000692B000834
:100030000000000000000000FB2A0008592C000806
:1000400093010008000000009301000893010008DC
:10005000930100089301000893010008410700087C
:1000600000000000930100089301000893010008BC
:1000700093010008930100089301000800000000AC
:10008000652C00080000000000000000930100083B
:10009000000000009301000893010008930100088C
:1000A00093010008930100089301000893010008E0
:1000B00093010008000000000000000000000000A4
:1000C00000F002F800F04CF812A030C808382418EC
:1000D0002D18AC4201D100F043F80FCCA246AB463C
:1000E0000CA730CF2D1B083F3F197C427F1E544484
:1000F0002D090426F441641EAC4201D300F030F80F
:100100000126334200D0FB1A3343984754465D46DC
:10011000DFE70000983A0000B83A0000103A02D336
:1001200078C878C1FAD8520701D330C830C101D598
:1001300004680C6070470000704700000023002432
:1001400000250026103A01D378C1FBD8520700D30E
:1001500030C100D50B6070471FB51FBD10B510BD75
:1001600000F00DF91146FFF7F7FF02F0EBFF00F08A
:1001700025F903B4FFF7F2FF03BC00F02BF90000F0
:100180000748804707480047FEE7FEE7FEE7FEE72F
:10019000FEE7FEE704480549054A064B70470000A4
:1001A000612C0008C1000008480300204809002015
:1001B0004805002048050020704770477047000040
:1001C000F0B5FF252D04C609C209FF2704462E40BD
:1001D0000137CB093E4348402A402B400746002ABE
:1001E0006BD0002B69D0AA4267D0AB4265D0002803
:1001F00000DA32460125ED0529432C43090220028D
:10020000090AD21A4B0C7F24E31A434C000A7C449F
:10021000E35C7D242404121914145B00A2188842A4
:1002200001D3521C00E0400049420C465C432411BB
:100230005C43DB016415E318040A5C43C502200D2E
:100240000C4644436419250A5D432303EC0C0D4618
:10025000654300030019EB184C42A34201D35B181D
:10026000401CD4052018002B07D05B00C91804D30C
:10027000401C002901D1400840003F2189048A42E6
:1002800009D3002A08DC1106090F04D0032149070D
:100290004018C00FC007F0BD0122410012068918A6
:1002A0007F2252069142F6D205214907C84201D564
:1002B0009010F0BDFF20C005F0BD002F00DA3246DF
:1002C0001648AA4207D2AB4205D21902090E17D02E
:1002D000F80FC007F0BDFF2563002D06AB42F9D82B
:1002E0004900A942F6D8AB4201D1A942F2D0A942B5
:1002F00001D1002101E061004908D0050843F0BDAB
:100300001102090EFBD0FF200243D005F0BD0A46C2
:100310000146104654E70000E03800000000C07FAE
:100320001F22030C02D10F2200041CD0030E01D1A6
:100330000002083A030F01D10001121F830F01D1FF
:100340008000921E002801DB4000521ED205511889
:10035000021251181922904004D3491C002801D1DF
:100360004908490008467047C10FC90700D04042FC
:10037000012292071143D3E701218907D0E775468F
:1003800000F024F8AE46050069465346C008C00098
:10039000854618B020B5FFF7FDFE60BCB6460026C6
:1003A0000027C0C5C0C5C0C5C0C5C0C5C0C5C0C583
:1003B000C0C5403D490849008D46704710B5044608
:1003C000C046C0462046FFF7D4FE10BD0048704727
:1003D0001000002001491820ABBEFEE726000200F5
:1003E00070470000F0B581B0054600240094006815
:1003F0008168C9071CD181682D4A2F3211420AD069
:10040000A86D10210143A965E86D01242043E8652A
:10041000204601B0F0BD8168254A114001273943CB
:10042000816024480068000205D4687E012825D137
:10043000204601B0F0BD20480068204903F05EFA74
:10044000401C009000980028EFD00098401E0090BB
:1004500000980028E9D00098401E009000980028DD
:10046000E3D00098401E009000980028DDD000984E
:10047000401E009000980028E7D1D6E700F04AFE21
:10048000064628680168C907D2D18168C90704D126
:100490008168074A11403943816000F03BFE811BAF
:1004A00028680329EED30168C907EBD1A8E7C04645
:1004B000E8FFFF7F0827014008000020400D0300EF
:1004C00070B586B01D46044681720B9901810A9869
:1004D0002260606081610222049211220292002651
:1004E0000396019101A900F02FFD206886610E4955
:1004F0006A1E42608660C16001F008FD206801F05C
:100500009DFD00F007FE00097C2808D87D2004012D
:10051000012000F0EFFC00F0FDFDA042F8D3142014
:1005200000F0E8FC06B070BDFFFF0000B0B5044667
:1005300000F0F0FD60666020205A52280ED8214657
:1005400060312018A26E23681D686D6AAA1AC272F3
:100550000888401C08801868406AA066B0BD00008A
:10056000F0B58DB002920191054660300590A87AF1
:1005700005286DD801242146814034200390014292
:1005800066D0686829898161022204920B92112247
:100590000092099200270A97089108A900F0D4FC5C
:1005A0006868298909048161052000F0A3FC696855
:1005B0002A898A61286800684762436A132B08D831
:1005C000436A132B05D8436A132B02D8436A142BB2
:1005D000F3D312048A614762416A042908D8416A48
:1005E000042905D8416A042902D8416A0529F3D3B0
:1005F000AF6605990F80476200F08CFD06460498AF
:100600000B903120000409900A97288908906868A7
:1006100008A900F099FC00F07DFD801B082817D880
:1006200000F078FD696E401A0228F4D3A87A0528F4
:100630000ED8214681400398014209D02820C043AA
:10064000E97A6539814203D3297B6539814211D228
:1006500000240598047568682989816102220B923B
:10066000112209920A94089108A900F06DFC204615
:100670000DB0F0BD06A807210E2204E0931C0E3A2F
:100680004E2A1A4628D2AB185B1E1B78233B232B1D
:10069000DED8AB5C1E460A3E232E0CD8CBB2012618
:1006A0009E400378B3430370CBB2002B0FD0491E9A
:1006B000002BE3D10EE0373B282BC9D8CBB226461E
:1006C0009E40037833430370CBB2002BEFD1072158
:1006D000002BD3D1401CD1E706AA1678507803909E
:1006E000811990780B18D1785B18DBB212799A4295
:1006F000AED100024018FFF737FE1049FFF760FD4A
:10070000E8660199002900D008603002039940187A
:10071000FFF72AFE0949FFF753FD286702990029D0
:1007200000D0086005980475686829898161049A79
:100730000B92009A09920A9795E7C0460000204163
:1007400080B5202000F0EAFB0148FFF7EFFE80BDF6
:10075000E4000020F0B589B002460024089454203B
:10076000105C012802D1022009B0F0BD15465435B5
:100770000120287013689E68760716D410694E68A9
:10078000022E19D1042210439C4A904270D19A48FB
:10079000C0430E68F1430143986A08409862002004
:1007A000002E69D42C7009B0F0BD916D20230B434D
:1007B00093652C7009B0F0BD07940696042420437D
:1007C0008D4E8E4FB84264D10F683E40986A3043D8
:1007D0009862079C38025A698243896801408848B8
:1007E0000840104358610020002FDBD501238549C4
:1007F0003E460F68072189053A4607910A4082491B
:1008000003968E4200D08AE0D9053E460E4000D0C5
:1008100085E006467B4F3868079B984302430A43AE
:100820003A607C4800687C4903F068F80C21414339
:100830000C3108910898002800D19DE030460899B5
:10084000491E089108990029ACD00899491E0891C1
:1008500008990029A6D00899491E089108990029ED
:10086000A0D00899491E089108990029E7D199E775
:100870000E680020002E95D5FC490A68634B9E4205
:100880006ED0634B9E4268D05F4B9E428AD1052357
:1008900067E003941F27069807400F2001900597F3
:1008A000B840176E0290874304970F68374250D0C4
:1008B000F807079C264668D1B80761D4780761D449
:1008C000380761D4F806039E5FD4B80673D478065F
:1008D00073D4380673D4F80573D40397B80572D46B
:1008E0000398400572D40398000572D40398C0049D
:1008F00072D40398800472D40398400472D4039F86
:100900003804019E079C40D4F8036ED403988003FA
:100910006ED4039F7803C017122606401BE03B49A4
:10092000039E8E4202D119068A4208D33849039E9B
:100930008E4200D036E799050F4000D032E7CB4F0A
:100940003E68079B9E4332430A433A602C7009B0CD
:10095000F0BD7800C60E079C17E00323DB0501E01D
:1009600003239B051A4007239B050E689E43B2187C
:100970000A602C7009B0F0BD30462C7009B0F0BD93
:10098000012602E0022600E003260598864004982E
:100990000643166606988008D269824200D819E795
:1009A0000298C0439A6A0240B800000F059EB0400A
:1009B000104398620EE70526E7E70626E5E70726D7
:1009C000E3E70826E1E70926039FC4E70A26039F19
:1009D000C1E70B26039FBEE70C26039FBBE70D264E
:1009E000039FB8E70E26039FB5E71026039FB2E7E3
:1009F0001126039FAFE7C046FFFF070004000080F9
:100A000000FFFF0708270140001000B0004000B8B9
:100A1000002000B408000020400D03000068006CB6
:100A200070470000F0B589B0044600200890002C03
:100A300077D00790A06D002807D125465435204671
:100A400000F016F900202870E06501273D072668B0
:100A5000B068C00027D4B0687F4901402943B16025
:100A60007E4800687E4902F049FF4000801C0890E3
:100A70000898002817D00898401E08900898002869
:100A800011D00898401E0890089800280BD00898AC
:100A9000401E08900898002805D00898401E08902D
:100AA00008980028E7D1B068284208D1A06D10212D
:100AB0000143A165E06D012107910843E065B0683D
:100AC00004210140A26D102002405118A16D2BD1CC
:100AD00006900F20C7433A46F33A1140891CA1659E
:100AE000B168C9077DD10390049727462037216B51
:100AF0004A1E91410D03A168227E92030A43617E42
:100B0000C9031143A27E50030843E36803432B4308
:100B10000120C507216900290590029509DAA9433A
:100B200008E0012009B0F0BD0143A165384609B0D5
:100B3000F0BD41050B43387B45001D433878012843
:100B400009D1002A11D0A06D20210143A165E06DDB
:100B500005990843E065626A002A0CD007208001ED
:100B60000240A16A1143294306E0059800040543A9
:100B7000626A002AF2D12946F0683A4A02400A43E2
:100B8000F2600320820763681D461540E16C387FE0
:100B900001280ED1206C0090676CA06C0190009829
:100BA0000743019807432F430F43059807433D46EA
:100BB00000E00D43049F30692B4901402943316116
:100BC0000298834203990CD093420AD0059880077B
:100BD000834206D08804034024490A688243D0181F
:100BE0000860706907229043656B284370617069E3
:100BF00070218843A16B09010143716121690123BF
:100C00005805814203D000290BD1B06A07E0B06AD1
:100C1000E06980001C301C2101408F40206E384369
:100C2000B06270691040A8420AD10020E065A06D52
:100C30000121014302208143A165079809B0F0BD5D
:100C4000A06D0699084302218843A065E06D184312
:100C5000E065184609B0F0BDE8FFFF6F080000200E
:100C6000400D03000102DEFF02FCFF1F08270140C8
:100C700010B586B000210591049103910291019174
:100C80000068114A904201D006B010BD0120020553
:100C90000E4BDC681443DC60DC6814400094009A5E
:100CA0001A6802431A601A680240009203910320F6
:100CB0000290C020019005200007009901A900F0D2
:100CC00043F906B010BDC046002401403410024074
:100CD000F0B581B00D4604464069082801D10827C7
:100CE00004E02068C068C00755D1042700F012FA5C
:100CF00006462168086838421CD001204202A36DD4
:100D00001343A365CA681205920F54D1A27E002A2C
:100D100051D10A6812074ED58A68520742D422463A
:100D200058324B680C25AB434B60FF2502351368E6
:100D3000AB433EE0681C2AD0002D0CD100F0EAF94C
:100D40002168086838420FD008683842F6D0D4E7E6
:100D500008683842D1D100F0DDF9801B2168A84233
:100D6000F6D908683842F3D1542000212154A06DEF
:100D700004210143A165032001B0F0BD0868384299
:100D8000BBD108683842B8D108683842B5D1086884
:100D90003842F3D0B1E7A06D20210143A1650120C5
:100DA00001B0F0BDA26D20231343A36522465C323F
:100DB000E36D03431360227E0020002A01D001B0BE
:100DC000F0BD0C220A6001B0F0BD000070B5014614
:100DD000006882680220520711D454228A5C012ADA
:100DE0000DD00C4654340120054620700E460846AE
:100DF000FFF7F8FA002803D000202070284670BDC5
:100E0000B06D09490140012000020818B0650020BA
:100E1000F06531681C220A6020708A68344B1340E8
:100E20001A1D8A6070BDC046FEF0FFFFF0B581B0AC
:100E300004465420205C012802D1022001B0F0BDFC
:100E400026465436012737702068816849072AD41E
:100E500081688268D2071FD0022211401CD18168AC
:100E600005220A40012A36D18168214A0A40911C94
:100E700081600321016000F04DF90546206880681B
:100E8000C00709D000F046F9411B20680329F6D3BA
:100E90008168C907F3D01EE0FF200230A16D8143B5
:100EA000583400201EE08168890704D48168104A04
:100EB0000A401032826000F02DF9054620688168F2
:100EC0004907C5D500F026F9411B20680329F6D350
:100ED00081684907F3D5A06D10210143A165E16D3B
:100EE0005C343846002232703943216001B0F0BDD5
:100EF000E8FFFF7FB0B5044600F00CF90546601C22
:100F000002D004480078041900F004F9401BA04204
:100F1000FAD3B0BD0000002070470000B0B5044611
:100F2000074D2868204203D02C60204600F00AF8C4
:100F30006868204203D06C602046FFF7EDFFB0BD2B
:100F40000C18024070470000F0B58CB00A900B916D
:100F50000968002900D1C2E062480A9A824201D0A1
:100F6000052000E0032000900A9820300190002323
:100F700008931D46099310E00A4332605B1C0B98EE
:100F800001680846D840099A08320992089A121D49
:100F90000892AD1C002800D1A1E0012006469E4029
:100FA0003140EBD00793039004910A9A0324204622
:100FB000A840C1432B460B98456828462040471E51
:100FC000012F0691029505930FD894680C400B9958
:100FD000CF689F4027439760EC06E40F079B9C4037
:100FE0005768B7432743576005E00328079B02D1A2
:100FF0002046029D1EE00A9FFC6806990C400B9A51
:10100000966805998E402643FE600228029D11D104
:101010001C20089908400F228240DC08A400019996
:101020000E5996430B9F3A69824032430A517D68BC
:1010300003202840059B98400A9A146806990C40A2
:1010400004431460A8031D46079B800F0499039F67
:1010500094D003201A46824323488018026E052448
:1010600024070A9EA6420AD0214C0A9EA64207D017
:10107000204C0A9EA642009F02D1022700E00027D2
:101080001824099E34400F26A640B2436030A74082
:1010900017430760144802680B984068C40201D5E2
:1010A0000A4300E08A43114E0F4C226062688402BA
:1010B00001D50A4300E08A430B4C626072688403E6
:1010C00005D50A4372603268C00306D554E78A43E7
:1010D00072603268C00300D54EE78A434DE70CB01A
:1010E000F0BDC046000C00500018024080180240BD
:1010F000000400500008005000690840411E88416B
:101100007047002A02D0182281507047282281504F
:1011100070470000014800687047C0464403002043
:10112000B0B50246034640335C780220202C17D12C
:101130001C78012C14D024205870106802680124F7
:10114000A2430260220305689543056002680A43D2
:10115000026001682143016000201870202159704D
:10116000B0BDB0B50246034640335C780220202C67
:1011700017D11C78012C14D02420587010680268F4
:101180000124A24302600F2212020568954309025E
:10119000294301600168214301600020187020216B
:1011A0005970B0BDF0B581B0002822D00546403559
:1011B0006978002905D100212970044600F0FCF966
:1011C00020462421697001680B68012293430B605B
:1011D0000F231B0644689C430C618C681C4B1C400D
:1011E0008C608468C668012E06D1D60334438C60B7
:1011F0000CE0012001B0F0BD2127BF023C438C6010
:10120000022E03D1D4024E68264302E0D4024E6877
:10121000A6434E604C680F4E26434E60CC681C407F
:10122000CC60036944691C4383691B022343CB6080
:10123000C369046A1C430C600B6813430B600021F4
:10124000416420226A7001630846A97001B0F0BDB4
:10125000FF7FFFFF00800002F0B585B004910446D7
:101260000546403569780220202900D0ACE0297875
:10127000012900D1A8E00193029201200390287077
:10128000FFF748FF064620688169090419D4222126
:1012900069701021A9700022626401996185029928
:1012A000616201926263618D090ABE49BE4F25D019
:1012B000049A0A4041683940001D0290FF234B48C0
:1012C00028E00398C70302E081693942DFD0192181
:1012D0002046324601F0DAF900286AD1FFF71AFFFA
:1012E000811B20681A29EFD381693942ECD0606CE8
:1012F0002021084360646970012070E0638D4268BA
:101300003A400F4604993940DFB23F047918001D76
:10131000029035480A9F0A430243029802602385DF
:10132000608D002848D004989E490840049012E03F
:10133000608D208521684A689C4B1A40C0B2000429
:10134000104301225206091D049B184310430860F4
:10135000608D002830D020463946324601F0D0FA60
:10136000002826D1606A2168496A0170608D401E9C
:101370006085606A401C6062208D401E2085618D02
:101380000029E5D00004E3D1009680210022204608
:101390003B4601F037FA00280BD1608D000AC7D018
:1013A000FF20208521684868804A1040091D804A36
:1013B000CAE7039805B0F0BD20463946324601F031
:1013C00005FB0028039801D005B0F0BD206820215E
:1013D000C1614268774B13404360697001980021F6
:1013E0002970A97005B0F0BD002400020024FF019F
:1013F000F0B587B006910546044640346178022076
:10140000202900D0B4E02178012900D1B0E0039375
:101410000492012005902070FFF77CFE07462868A3
:101420008169090418D4212161701021A170002163
:101430006964039A6A85049A6A6202916963012168
:1014400005914E06698D090A564A039621D0FF235D
:101450002B850126360620E00598C60302E0816947
:101460003142E0D0192128463A4601F00FF9002810
:1014700073D1FFF74FFEC11B28681A29EFD381698A
:101480003142ECD0686C202108436864617001200F
:1014900079E06B8D2B85002B7AD0049A11788162CC
:1014A000698D491E6985511C3E4A6962591E29850C
:1014B00006991140DBB21B045918314343683A4E78
:1014C00033400B4301214903194341600C9E688D51
:1014D000002845D006981040069011E0688D2885B8
:1014E00029684A68314B1A40C0B200041043091DF4
:1014F000039A069B184310430860688D00282FD07C
:10150000284631463A4601F0A4FA002825D1286839
:10151000696A0A788262688D401E6885481C686224
:10152000288D401E2885698D0029E6D00004E4D16D
:101530000097802100222846334601F063F90028F5
:101540000BD1688D000AC9D0FF202885296848681A
:10155000164A1040091D164ACBE7059807B0F0BDA2
:10156000284631463A4601F031FA0028059801D064
:1015700007B0F0BD28682021C16142680D4B1340BF
:1015800043606170029800212170A17007B0F0BD26
:10159000069911404368044E33400B4303990B43B3
:1015A000059990E7FF030000009800FC009C00FCF8
:1015B0000000FF0100E800FEB0B586B000210591F3
:1015C00004910391029101910068134A904201D065
:1015D00006B0B0BD114C206801252843206020686A
:1015E000284000900620059004910391122002905B
:1015F0000320C002019000980520000701A9FFF711
:10160000A3FCA805A1680143A160A1680140009165
:10161000009806B0B0BDC0460058004034100240EB
:101620001E48007802490A68101808607047C046D2
:101630004403002010B501242002D0490A68024367
:101640000A60032000F00AF8002801D0204610BDEF
:1016500000F026F80024204610BDC04670B50F4E9D
:1016600031780124002916D005467D20C00002F003
:1016700045F90146CC48006802F040F900F0FCFB57
:10168000032D08D8002806D10024E043294622462D
:1016900000F028F87560204670BDC04600000020AC
:1016A00082B00948416801221143416041681140FC
:1016B00001910199110702680A430260006808401D
:1016C0000090009802B070473C100240002805D4FA
:1016D0001F21084001218140014801607047C04638
:1016E00000E100E0002805D40322034693430A4AA0
:1016F0009A1803E00C220240064BD2188007C00E55
:101700008901C9B28140FF23834010689843084390
:101710001060704714ED00E000E400E0F0B581B027
:101720000146032460021B4D2A46143A1368834382
:101730000B43136001277A020020914224D19A4979
:1017400009682A6852051FD5BE0206224A4312497B
:101750000090104602F0D2F801460098791A02294A
:1017600014D02A6832420FD001290FD02A683242A1
:101770000AD000290AD02A68324205D0091D03295F
:1017800004D02A683242EAD101B0F0BD204601B04F
:10179000F0BDC0461470004040420F00F0B583B069
:1017A0000D4601460120002961D002910190734845
:1017B000006807273840A84215D270490868B84326
:1017C000284308606E4CFFF7A5FC06466B4800688E
:1017D0003840A84207D0FFF79DFC801BA042F5D9F6
:1017E000032003B0F0BD029B186881078F4C0CD515
:1017F000410703D5390322680A4322600F210902F9
:1018000022688A43996811432160C0071AD15B4856
:1018100000683840A8422CD958490868B843284382
:101820000860574CFFF776FC06465448006838407D
:10183000A8421ED0FFF76EFC801BA042F5D9032002
:1018400003B0F0BD596803296AD8880001A2125874
:101850000198974665180008151900080119000835
:101860000D1900082246083A126852055CD403B0EC
:10187000F0BD029A107840076C4C05D538032168FA
:101880008143D0680843206020688006400F1FD045
:10189000226838210A406648082A20D022680A4077
:1018A000102A5AD1616803220A40032A00D06148F5
:1018B00061684906490F491C02F020F86168490433
:1018C000490E48436168490F491C02F017F806E0C9
:1018D0002046083800688004410F5648C8402168F7
:1018E00089093C220A40274989581F220A40D040D2
:1018F0002D49086024480068FFF7B0FE03B0F0BD32
:101900002246083A12689201B1D50DE0A26D920705
:10191000ADD509E02246083A12689203A7D503E044
:10192000606D80070198A2D52068B8430843206005
:10193000FFF7F0FB06462068382101400298406816
:10194000C000814200D162E7FFF7E4FB801B0C4935
:101950008842F0D9032003B0F0BD20680840202859
:1019600002D10120C003BAE720680840182801D03E
:101970000020B4E77D200002B1E7C046002002400D
:1019800088130000343B000804000020064800686B
:1019900026490968890A1C220A40044989581F22DD
:1019A0000A40D0407047C04608000020743B000841
:1019B00010B51E4C20688006400F06D022683821E2
:1019C0000A401B48082A07D110BD083C2068800443
:1019D000410F1848C84010BD22680A40102A15D18E
:1019E000616803220A40032A00D012486168490650
:1019F000490F491C01F082FF61684904490E4843C0
:101A00006168490F491C01F079FF10BD206808404A
:101A1000202802D10120C00310BD206808401828EA
:101A200001D0002010BD7D20000210BD0810024032
:101A300000127A000024F400F0B587B004460120BB
:101A4000002C00D1EEE104902078C007FD4E0594F3
:101A50003FD12078800761D405980078000700D531
:101A60008FE0059A1078400700D5A0E0D469002CDB
:101A700000D1BEE1B06838210140102900D00CE14E
:101A8000012C00D1A0E0F06803210140059B1A6AF7
:101A9000914200D098E0702101405A6A914200D0F2
:101AA00092E07F21090201409A6A1202914200D01D
:101AB0008AE01F2149040140DA6A914200D083E0A4
:101AC000072149070840196B8842049800D0A9E112
:101AD0008FE1B168F26803200346934338220A403D
:101AE00010215140CB1859425941082A57D000299A
:101AF00055D131686368012467042204934203903E
:101B000008D005252D04AB4200D0F8E0A30419430A
:101B10003160316811433160059CF9E0B0683821CB
:101B2000014010204840F268032422400223534021
:101B3000C0184242424101208702002947D0002AB2
:101B400045D103943168059CE268002A00D1EEE09B
:101B50000722D202914322690A43326000023168AF
:101B600001433160FFF7D6FA05463068384200D0AD
:101B7000EFE0FFF7CFFA401B0228F6D9039807B031
:101B8000F0BDB0683821014018294AD1306E800775
:101B900000D466E705988069002815D061E73068B1
:101BA000800300D455E7606800280DD051E7B06885
:101BB0003821014020294BD1F06D800700D455E732
:101BC0009068002800D051E7049807B0F0BD326853
:101BD0003A42059B03D0DA68002A00D122E105468B
:101BE0007F200002726882435869000210437060CF
:101BF00000290DD10720C0023168814318690843CC
:101C0000306030688004400F9449C14094480160BE
:101C100094480068FFF722FD0028284600D001E123
:101C20001AE7306E05998969002900D19AE00121EF
:101C300008433066FFF76EFA0546306E800700D520
:101C40000FE7FFF767FA411B03200229F5D9E9E006
:101C5000012003900107F06B0840029006D1F06B61
:101C60000843F063F06B08400690069801917E4FA0
:101C70003868C00533D403980402386820433860BC
:101C8000FFF748FA05463868204228D1FFF742FAA4
:101C9000411B03200229F6D9C4E001210A0630685D
:101CA00003929043306004914F06FFF733FA0546E4
:101CB000022C09D13068384274D0FFF72BFA411B4F
:101CC00003200229F6D9ADE03068384200D18CE01B
:101CD000FFF720FA411B03200229F5D9A2E0F06D9D
:101CE00005998968012906D0052900D084E00421DE
:101CF0000843F065F06D03990843F06585E0914372
:101D00003160A004316881433160002B059C3AD0DA
:101D1000FFF700FA05463068384200D099E6FFF731
:101D2000F9F9401B6428F6D9039807B0F0BD00020A
:101D300081433160FFF7EEF905463068384200D143
:101D40008AE6FFF7E7F9401B0228F6D9039807B0A7
:101D5000F0BD7F2000027168814360690002084382
:101D6000706079E6012188433066FFF7D3F90546B4
:101D7000306E800700D474E6FFF7CCF9411B0320D6
:101D80000229F5D94EE0FFF7C5F90546306838421B
:101D900000D15EE6FFF7BEF9401B6428F6D9039830
:101DA00007B0F0BDF06833490140059D20353DCDB9
:101DB000084310431902014321432943F16030686D
:101DC00003990843306004980007F1680143F1600B
:101DD000FFF7A0F90446306838420AD1FFF79AF9B4
:101DE000011B03200229F6D91CE0F06820490140BC
:101DF000F160002007B0F0BD039A9043F065F06DEC
:101E000004229043F06500290ED0184CFFF782F9A8
:101E10000546F06D800717D4FFF77CF9411B0320BE
:101E2000A142F6D907B0F0BD104CFFF773F9054693
:101E3000F06D800708D5FFF76DF9411B0320A14223
:101E4000F6D9EFE70010024002980028059A00D06A
:101E50000CE6F06B01998843F06307E60024F40078
:101E600008000020040000200070004088130000DB
:101E7000FCFFFEEF8C80C11F401E010E01D001202F
:101E800070470749074A5060074803680B40032121
:101E90008907591801600020906007211160704780
:101EA000FFFFFF0010E000E020ED00E0704770470A
:101EB0007047000070B53C22825C012A01D10220EB
:101EC00070BD02463C320223537000684568836847
:101ED0007D4CA04201D02E4604E00F263605B543C6
:101EE0004E682E437025AE430D6835434560A042D1
:101EF00002D0764CA04204D18024A34389681943C0
:101F00008160002010700121517070BDB0B50028B3
:101F100024D005463C356978002905D10021297077
:101F2000044600F05FF820460221697001680C68E1
:101F3000654A914202D0654B994211D170239C436E
:101F400083682343234CA1420EDD914212D0224CE0
:101F5000A1420FD0214CA1420CD039E00120B0BDEC
:101F600023461C4CA142F0DC584CA14202D01C4C30
:101F7000A1422DD103242402A34304691C438023DE
:101F80009C43836923430B60C368CB6243688B62C5
:101F9000914205D0104A914202D0104A914201D19B
:101FA00040690863012048610A69D20702D00A69C2
:101FB00082430A612873A870E87028716871A8715B
:101FC000E87128726872A872E87268700020B0BD6B
:101FD0001C46D4E7FF2B014000480140004401406B
:101FE0000020004010B582B00068384988420ED009
:101FF000354988421DD10120C0020F494A68024379
:102000004A60496801400191019802B010BD0A4838
:10201000016802221143016000681040009000989E
:102020001024002120460A46FFF75CFB2046FFF7FC
:102030004DFB02B010BDC0463C1002403D21415C4A
:1020400001291AD101463D3102220A7001681E4859
:10205000814202D01D48814209D188681C4A024051
:102060000020062A08D001231B049A4204D00868E5
:10207000012202430A600020704701207047C046D9
:1020800010B53D21415C01291CD101463D310222A0
:102090000A700168C86801221043C8600A4881427A
:1020A00002D00A48814208D18868094B03400020C9
:1020B000062B06D01404A34203D00868104308601E
:1020C000002010BD012010BD002C01400004004084
:1020D00007000100F0B53C22825C012A01D10220F8
:1020E000F0BD02463C32022353700468A0684E4B98
:1020F0000340A3600D6800234F2D1EDC1F2D37DD2C
:10210000202D39D0302D37D0402D00D087E0206AE7
:10211000256A0126B5432562A569F026B543CE6838
:1021200036012E43A6610A25A8434968014321626E
:10213000A0683E49014047316BE06F2D28DD01204A
:102140004603B54256D00003854218461CD0702D78
:1021500065D1FF200002A568854348688E68C9687C
:102160000643080230432843A060A06877214FE06F
:10217000002D01D0102D52D1A0682C4901400D43F3
:1021800007202843A0601846137001215170F0BD4C
:10219000502D19D0602D42D1206A256A1026B543F2
:1021A00025620F252D03A669AE43CD682D03354367
:1021B000A561A025A8434968090101432162A068DF
:1021C0001A490140673124E0206A256A0126B54397
:1021D0002562A569F026B543CE6836012E43A66177
:1021E0000A25A843496801432162A0680F490140BC
:1021F00057310EE0FF252D02A668AE434D688F686B
:10220000C9682F43090239433143A1608003A168A3
:102210000143A1601846137001215170F0BD0120E7
:10222000137001215170F0BD8800CEFF88FFCFFFF1
:1022300070470000F0B583B004460068C568022707
:10224000294639404A424A410169029139404B428C
:102250004B41134313D16C49FE31016101212177B8
:102260008069800703D02046FFF7E2FF05E02046A3
:1022700000F0CEF8204600F0CCF8002020770126B0
:1022800004222946114048424841029949073146F3
:1022900000D50146032000020190002916D10092CA
:1022A00020685949FC31016127778069019908420A
:1022B00003D02046FFF7BCFF05E0204600F0A8F859
:1022C000204600F0A6F800202077009A082729462B
:1022D00039404842484102990907314600D5014634
:1022E000002913D120684849F83101612277C0697B
:1022F000800703D02046FFF79BFF05E0204600F053
:1023000087F8204600F085F800202077102129402A
:10231000484248410299C906314600D50146002984
:1023200014D120683849F03101612777C0690199DB
:10233000084203D02046FFF77BFF05E0204600F06F
:1023400067F8204600F065F8002020770121294039
:10235000484248410299C907314600D00146002948
:1023600006D120682849FF310161204600F052F86B
:1023700080272F40784278414121C901029A0A42C0
:10238000314600D00146002905D120681F4901616E
:102390002046FFF78CFD784278410299C905314605
:1023A00000D50146002905D1206817490161204662
:1023B000FFF77CFD402129404842484102994906E7
:1023C000314600D50146002906D120680E49C031AA
:1023D0000161204600F024F8202005406842684151
:1023E0000299890603D4002E04D003B0F0BD06463E
:1023F000002EFAD120680449E03101612046FFF740
:1024000057FD03B0F0BDC046FFFEFFFF7FDFFFFFBB
:102410007047704701480121017070475C0100203E
:102420007047B0B500281ED004460546843568685C
:10243000002804D100202870204600F02BF824202A
:102440006860206801680125A9430160A06A00282E
:1024500002D0204600F00EFC204600F0DDFC0028F3
:1024600003D02846B0BD0120B0BD0920C0022168BC
:102470004A6882434A6088682A22904388600868D4
:10248000012202430A60204600F05EFC0546284611
:10249000B0BD000010B586B00021059104910391F4
:1024A000029101910068124A904201D006B010BD1D
:1024B0001048836801220592540423438360836893
:1024C00023400093009B036813430360006810409F
:1024D000009004910391022002900C2001900520AD
:1024E0000007009901A9FEF72FFD06B010BDC046F8
:1024F0000044004034100240F0B585B00746882003
:102500003858202810D1012000290BD0002A09D0EA
:1025100001200403BD68A54209D1CD0707D03D695C
:10252000002D04D105B0F0BD022005B0F0BD01932F
:1025300002913D4654353946883100200390886029
:102540002120009108601646FEF7E4FD04906E809D
:102550002E80B868A04202D1386900285ED0029C63
:10256000019E039A3968688800285ED0701C454B2C
:102570002ED0002E49D00392C869000608D4FEF779
:10258000C9FD0499401AB04267D839680868F3E772
:10259000002C03D020788862641C07E0039A10881E
:1025A000384B18408862921C039200246888401EB1
:1025B000688068880028DFD137E01088184088627A
:1025C000921C00246888401E6880688800282CD0EF
:1025D000C869000608D4C869000605D4C8690006A1
:1025E00002D4C8690006F3D5002CE6D020788862B2
:1025F000641CE7E7108818408862921C00246888F1
:10260000401E6880688800280FD0C869000622D55F
:10261000002CEFD020788862641CF0E70024029A36
:10262000019E396868880028A0D1CA690020520636
:1026300014D4002E0FD0721C15D1009BCA6952060B
:102640000DD4CA6952060AD4CA69520607D4CA69A7
:102650005206F3D503E0FEF75DFD0320009B202129
:10266000196005B0F0BD0446FEF754FD0499401A08
:10267000B042F2D838680168C0694006F4D52046F7
:10268000ECE7C046FF010000FEE70000F0B585B0B2
:102690000E4604464030049020688169C90606D47D
:1026A00000210F4601258269D30543D446E010215D
:1026B000C1618169890635D4711C30D0154601206D
:1026C000002E6AD186030390C703FEF723FD20681E
:1026D00042680499897883693B4209D0324007D126
:1026E000202905D0416831434160FEF713FD0546BE
:1026F00020688169890605D4FEF70CFD401B1A2865
:10270000F6D375E081698906DFD50BE0816989061A
:1027100008D48169890605D48169890602D4816952
:102720008906F3D52021C161012704210125826991
:10273000D30503D52B02C36129432F466B025605EF
:1027400006D41A420AD1002F0BD1002005B0F0BDEB
:10275000AD02C561082529431A4202D0C361022295
:1027600011438269920701D5002282628269D207F1
:1027700003D182690123134383614268924B134062
:102780004360606C08436064202004994870002016
:1027900008708870012005B0F0BD8103029103909C
:1027A000C0030190019F02E081698906BAD4FEF757
:1027B000B1FC411B2068B142F6D94268049989787E
:1027C00083693B420BD0029B1A4008D1202906D0D6
:1027D0004168029A11434160FEF79CFC054620685F
:1027E00081698906E0D4FEF795FC401B1A28F6D3D0
:1027F000206881692421039F01258269D30599D42A
:102800009CE7C046F0B585B00D4604460068806977
:102810000840401A4142414100260492914223D18E
:102820001F460A9A581C03922BD0002F029433D1D2
:10283000002620463146FFF729FF002828D1FEF761
:1028400069FC206881692940491B4A424A41049930
:102850008A42039A44D080692840401B414241414A
:1028600004988142029CE3D0304605B0F0BD206858
:1028700080692840401B4142414104988142039AAB
:10288000F2D10026F1432046FFF700FF0028EED0EA
:102890000126304605B0F0BD019507E0806928406B
:1028A000401B4142414104988142DDD13446029EA1
:1028B000304639461546FFF7E9FE0028E8D1FEF715
:1028C00029FC411B3068B9422A462646019DE5D9BC
:1028D00081692940491B4B424B4104998B42DDD110
:1028E000029B18464030596C2022114359644270B3
:1028F0000021017081700126304605B0F0BD000056
:10290000F0B583B004460068806940074BD40D469B
:10291000204640300090029220462946FFF7B6FE3E
:10292000411E07468F4121688A69202300280193B0
:102930001AD11A4018D088698A69D20605D40021B4
:102940006164400710D50F460EE01020C8610420D6
:102950006064CB6148681C4A1040486000994B7025
:102960000020087088700127681E2E468641FEF7F9
:10297000D1FB029A801AA84204D9002120680E4295
:1029800004D008E0012120680E4204D1002F02D1BA
:10299000816949070BD58069400701D4002FBBD05E
:1029A000384603B0F0BD0027384603B0F0BD616C77
:1029B000019B19436164009A537000211170806972
:1029C0000127384603B0F0BD00E800FEF0B581B045
:1029D0000546006880690024800622D416460F460A
:1029E000002903D129E0806980061AD42846394697
:1029F0003246FFF74BFE002827D1FEF78BFB811BE9
:102A00002868B942EFD981698906ECD4284640305C
:102A1000696C202211436964427000210170817049
:102A20000124204601B0F0BDFEF774FB28688169DF
:102A30008906EBD580698006F3D400242846214618
:102A40003246FFF723FE0028EED00124204601B0D5
:102A5000F0BDF0B581B005460068806900248007AC
:102A600016D416460F46481C19D0002F26D1002434
:102A7000284621463246FFF709FE002838D1FEF7E6
:102A800049FB28688169890728D580698007EED5C8
:102A9000204601B0F0BD286880698007F8D4002482
:102AA000E14328463246FFF7F1FD0028F3D0012428
:102AB000204601B0F0BD80698007E9D42846394638
:102AC0003246FFF7E3FD002812D1FEF723FB811BFE
:102AD0002868B942EFD981698907ECD4284640308B
:102AE000696C202211436964427000210170817079
:102AF0000124204601B0F0BDFEE77047F0B581B07B
:102B0000417E002917D00D49818005210C0702253F
:102B10000122074620462946FEF7F3FA3868391D98
:102B200015226423FFF7E8FC00262046294632469A
:102B3000FEF7E7FA7E7601B0F0BDC046A5030000BF
:102B400010B508490C68002C01D10C1D0C60002246
:102B500062762060052000070221FEF7D2FA2046A7
:102B600010BDC046C400002070470000B0B5044648
:102B7000006900F051FE274D2878002849D0A0694F
:102B800000F080FC206961690079887120696169C1
:102B90004079C8712069616980790872206961692A
:102BA000C079487220696169007A88722069616918
:102BB0004069C872020E8A73020C4A73000A0873D5
:102BC000206961698069C873020E8A74020C4A74B4
:102BD000000A08746069A1690978C1746069A16913
:102BE000497801756069A169897841756069A16951
:102BF000497981756069A1698979C1756069A1693F
:102C0000C9790176606901214176FFF777FF0020DD
:102C10002870B0BD5C010020F0B581B01C4617469D
:102C20000E460C4A15680699002D01D1151D156038
:102C300000F044FE28613846FFF782FF68613046A5
:102C400000F0FCFCA8612046FFF71AFA284601B004
:102C5000F0BDC0468400002080B5FEF7E1FC80BDD9
:102C60007047000080B50248FFF7E4FA80BDC04617
:102C700064020020B0B5816A0A070CD4CA0714D1D7
:102C80008A071CD44A0724D4CA062CD48A0634D412
:102C90004A063CD44CE00122D20303685C689443AA
:102CA000826B22435A60CA07EAD0012252040368A9
:102CB0005C689443C26A22435A608A07E2D50122C3
:102CC000120403685C689443026B22435A604A070B
:102CD000DAD50122920403685C689443426B224374
:102CE0005A60CA06D2D50122120303689C68944335
:102CF000C26B22439A608A06CAD501225203036836
:102D00009C689443026C22439A604A0610D50122C3
:102D10001305026854689C43456C2C4354609D42E3
:102D200006D103235B0554689C43836C23435360A3
:102D3000090607D50121C904026853688B43C06C9A
:102D400018435060B0BD0000F0B583B0044606469D
:102D500084360025F560FEF7DDF90346206801683A
:102D6000090721D502952B4800900125690500220D
:102D700020461F4600F004F9002812D0EFF310801F
:102D800085F3108821680A6880239A430A6080F3DB
:102D90001088032020228821029D6250357003B0E4
:102DA000F0BD20683B46029D0068400726D51948C3
:102DB00000900127B9050022204600F0E1F8002824
:102DC0001CD0EFF3108087F3108809214901226895
:102DD00013688B43136080F31088EFF3108087F340
:102DE000108821688A68BA438A6080F310880320BB
:102DF00020228C216250357003B0F0BD202070601D
:102E0000B060E56670212A4628466250357003B0EE
:102E1000F0BDC046FFFFFF01F0B581B00446006879
:102E200001684A4A0A40A16823690B436169194352
:102E30001143E269114301600321090343688B4395
:102E4000E16819434160A169236A0B438168404DE1
:102E50000D401D438560C36A0F218B43616A0B439C
:102E6000C3623C4B984209D03B4B984208D13B4847
:102E700000688007000F3AA31F5802E0002700E017
:102E80001027264668360125EB0339489A420FD1B0
:102E9000082F52D87F443F797F00BF44044E264E0E
:102EA000194E4E4E2500FEF771FD002814D143E067
:102EB000082F42D87F443F797F00BF44043E2C3E18
:102EC0000F3E3E3E2B00FEF761FD00280AD133E0A5
:102ED000FEF76EFD00282FD0616A06E0FEF768FD60
:102EE000002829D0616A16E018464900214A515A43
:102EF00000F004FD400061684A08101800F0FEFC74
:102F00000246103A1C498A4217D201400007400F7E
:102F100008430FE018464900164A515A00F0EEFCEB
:102F200061684A08101800F0E9FC01461039124A9D
:102F3000914202D22168C86000251048306000200C
:102F40006067A067284601B0F0BDC046F369FFCFB7
:102F5000FFF4FF11004400400038014054100240CB
:102F60000000000004000000020000000800000053
:102F70000024F400943B0008F0FF00000100010071
:102F8000F0B585B01F4615460E460368D969314035
:102F9000891B4A424A410021AA4222D10A9C002CA4
:102FA00022D00391611C24D1D9693140891B4A4246
:102FB0004A41AA4231D1D9693140891B4A424A412A
:102FC000AA422AD1D9693140891B4A424A41AA42C0
:102FD00023D1D9693140891B4A424A41AA42E3D0F0
:102FE0001BE0084605B0F0BDFEF794F8032005B0DD
:102FF000F0BD402E049001D0802E14D1FEF78AF847
:10300000C01BA0420CD8049800680168C069304019
:10301000801B41424141A942F0D0039805B0F0BD68
:10302000032005B0F0BD8430019001200090C00263
:10303000029006E0C8693040801B41424141A942EC
:10304000EBD1FEF767F8C11B0320A1423FD80499DA
:1030500009680A685207EDD5CA69120739D4CA69E6
:10306000029B1A42E6D0029A0A62EFF31082012113
:1030700081F3108809235B01049C246825689D4323
:10308000256082F31088EFF3108281F31088049B8F
:103090001B689C682A4D25409D60049B82F3108824
:1030A000DA6E012A0BD1EFF3108281F310881968D0
:1030B0000B681024A3430B60049B82F3108820212B
:1030C000019CA1600022DA665A672270E16005B0B7
:1030D000F0BD08250D62EFF31081009880F3108891
:1030E00009225201049B1B681C6894431C6081F3F5
:1030F0001088EFF3108180F31088049A12689368A7
:103100000F4C1C40049B946081F31088D96E0129F8
:103110000CD1EFF31081012282F310881A68136832
:103120001024A3431360049B81F310882021019A8B
:1031300091600021D96659671170D56005B0F0BD66
:10314000FEFFFFEF98B0FEF775FA0024119410947B
:103150000F940E940D940C9401277802FEF7DEFA7A
:103160007807179078041690082015901494022080
:1031700013901290402610960F943D020E950690E3
:103180000B900BA8FEF758FC002803D0EFF310803B
:1031900072B6FEE70295059704960A9409940720F3
:1031A00003900790069D089507A82946FEF7F6FAB2
:1031B000002803D0EFF3108072B6FEE70F940E9450
:1031C0000D940C940B949E4801682943016001689A
:1031D0002940079107990168059E31430160006805
:1031E00030400790079805200007019029462246A5
:1031F000FDF787FF934804992246FDF782FF0D945F
:103200000C9480200B900BA98E4837460E46FDF794
:103210009BFE0E940D940C970B95019F38463146FA
:10322000FDF792FE0D940C94029810300B903846E6
:103230003146FDF789FE0D94112000040C902020EA
:103240000B9038463146FDF77FFE0E940D9405989D
:103250000C9004980B907B483146FDF775FE039F58
:10326000384621462246FEF73DFA3846FEF72EFA4A
:103270003C21754844542C214454C464046347637E
:10328000876344628462011D0C77C5618476048380
:103290000425059A5105164692076C4B036042605F
:1032A0008460C460016145610D940C940B94FDF73A
:1032B000B9FB002803D0EFF3108072B6FEE70D943F
:1032C0000C9463480B9060480BA9FDF743FA002863
:1032D00003D0EFF3108072B6FEE70C955D480B90BB
:1032E00059480BA9FDF736FA002803D0EFF31080F8
:1032F00072B6FEE758485949594A0260021D52C247
:10330000046144618461C4610462FDF74BFF0028DD
:1033100003D0EFF3108072B6FEE74F480021FDF7AF
:10332000FFFE002803D0EFF3108072B6FEE74A4894
:1033300000242146FDF715FF002803D0EFF310808D
:1033400072B6FEE74748484F484912C004604760DC
:103350008460C46004610E940D940C940838FEF7E8
:10336000D5FD002803D0EFF3108072B6FEE73603D8
:103370000B963C480BA9FEF7ADFE002803D0EFF3F7
:10338000108072B6FEE7099408940794354D07A99A
:103390002846FEF78FFD002803D0EFF3108072B6A9
:1033A000FEE7334884613349334A0260021D92C20A
:1033B00004610E940D940C940894FEF7A7FD002868
:1033C00003D0EFF3108072B6FEE70B9628480BA9E6
:1033D000FEF780FE002803D0EFF3108072B6FEE700
:1033E00009940794224807A9FEF764FD002803D03A
:1033F000EFF3108072B6FEE720480C21204A0462E9
:1034000044628462E1235B021CC00460446081600A
:10341000C46004610C38FFF704F8002803D0EFF310
:10342000108072B6FEE7009507480B49134A104B0F
:10343000FFF7F2FB04462046FFF798FBFBE7C04688
:1034400034100240000400506001002000240140BC
:10345000400000188000001CC4010020B57DB110A0
:103460000058004018020020FFFF0000002C01401F
:1034700064020020E703000000040040B0020020C6
:1034800000440040F0B595B0069008AA04201070E2
:10349000E04908680F467D21CC000094D026012524
:1034A00031462B46FDF7A4FF3868009407AF31463C
:1034B0003A462B46FDF7D0FE38780F2205920109D7
:1034C00010400A22049251430818069908700AAA6B
:1034D00005201070CF4F3868009431462B46FDF719
:1034E00087FF3868009409AF31463A462B46FDF70E
:1034F000B3FE38780109059A1040049A5143081820
:10350000069948700CAA10201070C24F38680094B9
:1035100031462B46FDF76CFF386800940BAF3146FF
:103520003A462B46FDF798FE387801900EAA062001
:103530001070B84F3868009431462B46FDF758FF9D
:103540003868039400940DAF344631463A460295EC
:103550002B46FDF781FE38780109059A1040049A40
:1035600051430818C0B26421019A51430A183148E6
:10357000411E8A42014600D311462F4A914200D88B
:1035800008460699488010AA02201070A1490868D0
:103590000F46039E00962146029D2B46FDF728FF0D
:1035A000386800960FAF21463A462B46FDF754FE89
:1035B00038788106059A1040890F049A51430818FB
:1035C0000699487112AA1570924F386800962146E4
:1035D0002B46FDF70DFF3868009611AF21463A469D
:1035E0002B46FDF739FE38780109059A1040049AF8
:1035F000514308180699887114AA00201070854F4D
:103600003868009621462B46FDF7F2FE3868009692
:1036100013AF21463A462B46FDF71EFE3878059932
:1036200001404006400F049A504340180699C87163
:1036300015B0F0BDE9070000B80B0000F0B589B087
:1036400074490860C8600E4607AA002104911170F1
:103650007D21CF000097D025012429462346FDF780
:10366000C7FE3068009708AE294632462346FDF76C
:10367000F3FD30787F21014007AA51700498107043
:10368000644E30680097022302932946FDF7B0FE8E
:1036900007AA042010703068009729462346FDF7DA
:1036A000A7FE306800973E4608AF29463A462346B3
:1036B000FDF7D2FD38780F220592010910400A2249
:1036C000069251430818534F387107AA0298107098
:1036D00038680396009629462346FDF789FE386828
:1036E000009608AE294632462346FDF7B5FD3078F0
:1036F0008106059F3840890F069A514308184549AD
:10370000487207AA14700868039E0096294623464B
:10371000FDF76EFE3F480068009608AE2946324627
:103720002346FDF799FD307801093840069A514348
:1037300008183849887207AA0520107008680E46D4
:10374000039F009729462346FDF752FE30680097F5
:1037500008AE294632462346FDF77EFD3078010942
:10376000059A1040069A514308182A49487107AA39
:103770000498107008680E46009729462346FDF706
:1037800037FE3068009708AE294632462346FDF7DB
:1037900063FD30784106059A1040490F069A51435F
:1037A00008181C49C87207AA1020107008680E4635
:1037B000009729462346FDF71BFE3068009708AEA8
:1037C000294632462346FDF747FD3078049007AA84
:1037D000062010700F4E3068009729462346FDF7EB
:1037E00007FE3068009708AE294632462346FDF7AB
:1037F00033FD3078059901400009069A504340187E
:10380000C0B26421049A514308180249C880081DB7
:1038100009B0F0BD7000002070B504462548802135
:10382000FDF76AFC41424141217105200507102145
:103830002846FDF761FC401E41424141617101266D
:1038400031022846FDF758FC41424141A171E06830
:10385000FDF7BCFAE06864252946FDF739FAE0680F
:10386000FDF7DCF82080E0682946FDF731FAE068D2
:10387000FDF7D4F86080E068FDF7D8FA20880E4A9A
:1038800000219042304600D8084620726288120912
:103890007C2A00D80E46E6713043A1794A1E914138
:1038A0000143617221461431183413482246FCF753
:1038B00057FE70BD00040050AB0D000010B582B083
:1038C0000A460C490C68002C01D10C1D0C60E0600C
:1038D00022610020606020812020052109070091DD
:1038E0000190054804214823FCF7EAFD204602B078
:1038F00010BDC046A4000020E400002043088B4215
:103900001AD3002203098B4279D3030A8B425ED378
:10391000030B8B4242D3030C8B4227D30902FF22B5
:1039200012BA030C8B4202D31212090203D0030B0A
:103930008B4233D31AE0D3E0411A8041401C7047D8
:1039400003460B4371D443088B42F5D3002203098D
:103950008B4254D3030A8B4239D3030B8B421DD3C2
:10396000030C8B4202D394466EE0090AC30B8B42D0
:1039700001D3CB03C01A5241830B8B4201D38B037B
:10398000C01A5241430B8B4201D34B03C01A524120
:10399000030B8B4201D30B03C01A5241C30A8B4263
:1039A00001D3CB02C01A5241830A8B4201D38B024E
:1039B000C01A5241430A8B4201D34B02C01A5241F2
:1039C000030A8B4201D30B02C01A5241CDD2C30964
:1039D0008B4201D3CB01C01A524183098B4201D3E0
:1039E0008B01C01A524143098B4201D34B01C01ACB
:1039F000524103098B4201D30B01C01A5241C30843
:103A00008B4201D3CB00C01A524183088B4201D3B1
:103A10008B00C01A524143088B4201D34B00C01A9D
:103A20005241411A524110007047CA0F00D049421A
:103A3000031000D34042534000229C4603098B42AE
:103A40002DD3030A8B4212D38901FC2212BA030A36
:103A50008B420CD3890192118B4208D389019211B8
:103A60008B4204D3890137D0921100E08909C30940
:103A70008B4201D3CB01C01A524183098B4201D33F
:103A80008B01C01A524143098B4201D34B01C01A2A
:103A9000524103098B4201D30B01C01A5241C308A2
:103AA0008B4201D3CB00C01A524183088B4201D311
:103AB0008B00C01A5241D9D243088B4201D34B002C
:103AC000C01A5241411A00D2014652411046634683
:103AD0005B1000D34042704763465B1000D3404206
:103AE00001B50021004201D0C9430846C046C04686
:103AF00002BD8182838485868788898B8C8D8E8F99
:103B0000919293959697999A9C9D9FA0A2A3A5A701
:103B1000A8AAACAEB0B2B3B5B7B9BCBEC0C2C5C737
:103B2000C9CCCED1D4D7D9DCDFE2E6E9ECF0F3F7AB
:103B3000FAFE00000000000000000000000000008D
:103B40000000000000000000000000000000000075
:103B5000000000000100000002000000030000005F
:103B6000040000000600000007000000080000003C
:103B7000090000000000000000000000000000003C
:103B8000000000000100000002000000030000002F
:103B900004000000010002000400060008000A0002
:103BA0000C0010002000400080000001D03B000805
:103BB00000000020100000001C010008E03B00088D
:103BC00010000020380900003C010008000000003F
:103BD00001000000040000000024F40000000000C8
:04000005080000C12E
:00000001FF
